:400000000080002011000000411500004115000080B500AF024A034B1B68136001F09AFABC760040FA46004010B5054C237833B9044B13B10448AFF300800123237010BDD6
:400040002885FF1F00000000604E0000084B10B51BB108490848AFF300800848036803B910BD074B002BFBD0BDE81040184700BF000000002C85FF1F604E0000C880FF1FDE
:400080000000000080B58CB000AF786039604FF00003BB624FF000037B624FF00003FB604FF000033B624FF00003FB614FF00003BB614FF000037B6100233B615AE03B69FE
:4000C0005B007A6813441B88184604F021FB7E4A3B6952F82330194604F06EFB03461946386A04F061FA03463B623B695B007A6813441B88184604F00BFB744A3B6952F838
:400100002330194604F058FB03461946F86904F04BFA0346FB613B695B003A6813441B88184604F0F5FA684A3B6952F82330194604F042FB03461946B86904F035FA03464B
:40014000BB613B695B003A6813441B88184604F0DFFA5E4A3B6952F82330194604F02CFB03461946786904F01FFA03467B613B6901333B613B697F2BA1DD396AF86904F047
:40018000CFFB0346184602F0D3FBB862B969786904F0C6FB0346184602F0CAFB78624FF00001F86904F0A6FC0346002B10D04FF00001386A04F09EFC0346002B08D0444B2E
:4001C0001B681946B86A04F0EDF90346BB620FE04FF00001386A04F08DFC0346002B07D03B4B1B681946B86A04F0DEF90346BB624FF00001786904F07DFC0346002B10D085
:400200004FF00001B86904F075FC0346002B08D02F4B1B681946786A04F0C4F903467B620FE04FF00001B86904F064FC0346002B07D0274B1B681946786A04F0B5F9034687
:400240007B62796AB86A04F0ADF90346F968184604F0A8F90346FB621D4B1B6883F00043F96A184604F064FC0346002B0DD0184B1B681946184604F097F903461946F86A87
:4002800004F092F90346FB6215E0114B1B681946F86A04F04DFC0346002B0CD00C4B1B681946184604F080F903461946F86A04F079F90346FB62FB6A83F00043FB62FB6A00
:4002C00018463037BD4680BD6087FF1F6089FF1FD080FF1F00000000B0B58CB000AF786039604FF00003BB624FF000037B624FF00003FB604FF000033B624FF00003FB6126
:400300004FF00003BB614FF000037B6100233B615AE03B695B007A6813441B88184604F0F7F9914A3B6952F82330194604F044FA03461946386A04F037F903463B623B6986
:400340005B007A6813441B88184604F0E1F9874A3B6952F82330194604F02EFA03461946F86904F021F90346FB613B695B003A6813441B88184604F0CBF97B4A3B6952F86D
:400380002330194604F018FA03461946B86904F00BF90346BB613B695B003A6813441B88184604F0B5F9714A3B6952F82330194604F002FA03461946786904F0F5F80346C6
:4003C0007B613B6901333B613B697F2BA1DD396AF86904F0A5FA0346184602F0A9FAB862B969786904F09CFA0346184602F0A0FA02465F4B1B681946104604F0D3F8034602
:400400007B624FF00001F86904F074FB0346002B10D04FF00001386A04F06CFB0346002B08D0534B1B681946B86A04F0BBF80346BB620FE04FF00001386A04F05BFB0346EB
:40044000002B07D04A4B1B681946B86A04F0ACF80346BB624FF00001786904F04BFB0346002B10D04FF00001B86904F043FB0346002B08D03E4B1B681946786A04F092F88A
:4004800003467B620FE04FF00001B86904F032FB0346002B07D0364B1B681946786A04F083F803467B62796AB86A04F07BF80346184603F0F7FC2AA3D3E9002303F092FB5B
:4004C00003460C4625461C46F86803F0EBFC02460B462046294603F085FB03460C461846214604F00BF80346FB62214B1B6883F00043F96A184604F01BFB0346002B0DD0BB
:400500001B4B1B681946184604F04EF803461946F86A04F049F80346FB6215E0144B1B681946F86A04F004FB0346002B0CD0104B1B681946184604F037F803461946F86A53
:4005400004F030F80346FB62FB6A83F00043FB62FB6A18463037BD46B0BD00BFAFF30080894160E5D022F93F6087FF1F6089FF1FD080FF1F90B587B000AF78604FF00003CE
:400580007B614FF000033B610023FB602EE0FB685B007A6813441B88184604F0B9F8284AFB6852F82330194604F006F903461946786903F0F9FF03467B61FB685B007A685B
:4005C00013441B88184604F0A3F81E4AFB6852F82330194604F0F0F803461946386903F0E3FF03463B61FB680133FB60FB687F2BCDDD7969786904F0DFF803461C463969EA
:40060000386904F0D9F803461946204603F0CCFF0346184603F046FC03460C461846214602F01AFB03460C461846214603F066FF0346BB60BB6818461C37BD4690BD00BF46
:400640006087FF1F6089FF1F80B500AF064B1B780121184601F042F8044B1B780121184601F03CF800BF80BD778BFF1F758BFF1F80B500AF01F0B2FE012001F081FF012002
:4006800001F09CFF012001F0B7FF002001F0D2FF012001F0EDFF012002F008F802F056F800BF80BD80B582B000AF786039603B68002B0EDD7B68DBB2184601F09DFF7B6839
:4006C000002B0CBF01230023DBB2184601F0B2FF05E0002001F090FF002001F0ABFF3B689BB2184601F014FF00BF0837BD4680BD80B584B000AF786039600023FB60002336
:40070000BB603B684EF66022934203DD002002F0B5F807E03B68DA0F13445B109BB2184602F0ACF87B68DBB2184601F0BFFF3B689BB2184602F092F800BF1037BD4680BDBE
:4007400090B583B000AF01F011FB01F035FD01F09DFC01F037FE01F043FA01F0C1FFFFF787FF00237B605AE080233B607B685B00184603F0CDFF02462C4B1B68194610465F
:4007800004F01AF803461C46294B1B68184603F0BFFF03461946204604F00EF803461C46386803F0B5FF03461946204604F0B8F80346184602F0D2F901461E4A7B6842F8A6
:4007C00023107B685B00184603F0A2FF0246174B1B681946104603F0EFFF03461C46144B1B68184603F094FF03461946204603F0E3FF03461C46386803F08AFF0346194610
:40080000204604F08DF80346184602F0E7F90146094A7B6842F823107B6801337B607B687F2BA1DD00BF0C37BD4690BDD080FF1FCC80FF1F6087FF1F6089FF1F80B586B0D8
:4008400000AF4FF4C8733B610123FB6001237B614FF00003BB6001237B604FF6FF733B603969F868FFF71EFF39687868FFF740FF002001F04FFFFFF7E7FE11E01C4B1B7892
:40088000DBB2002B0CD01B4B1B78DBB2002B07D000237B61164B00221A70164B00221A707B69012BEAD0144B4FF000021A60134B4FF000021A60124B4FF000021A60114B92
:4008C0004FF000021A601048FFF754FEB8600F4B1B681946B86804F02BF90346002B00D102E00B4B02221A6000BF1837BD4680BD788BFF1F768BFF1F4485FF1F4885FF1F96
:400900004C85FF1F5085FF1F6085FF1FD880FF1F608BFF1F00000000B0B596B000AF4FF4C8737B6501233B650123FB640123BB644FF000037B634FF000033B634FF00003CF
:400940007B644FF000033B644FF00003FB62644BBB62644B7B62644B3B624FF00003FB610123BB610123FB63C8237B615F4B3B614FF00003FB604FF00003BB604FF00003CB
:400980007B600023BB6386E0002001F0C3FEFFF75BFE11E0564B1B78DBB2002B0CD0554B1B78DBB2002B07D00023FB64504B00221A70504B00221A70FB6C012BEAD04E4925
:4009C0004E48FFF75FFB7863012001F0A3FEFFF73BFE11E0464B1B78DBB2002B0CD0454B1B78DBB2002B07D00023BB64404B00221A70404B00221A70BB6C012BEAD03E49B5
:400A00003E48FFF769FC38633D4B1B681946786B03F086FF0346184602F0E0F80446384B1B681946374803F07BFF03461946204603F0C2FE0346796C184603F0B5FD03462E
:400A40003149184603F0B0FD03467B642C4B1B681946386B03F064FF0346184602F0BEF80446274B1B681946264803F059FF03461946204603F0A0FE0346396C184603F000
:400A800093FD03462149184603F08EFD03463B64BB6B0133BB63BA6BBB699A42FFF674AFB86903F035FE03461946786C03F038FF03467B64B86903F02BFE03461946386CCC
:400AC00003F02EFF03463B644FF00001786C04F011F80346002B1BD000233B651AE000BF9A99B9403333B33FA69BC43B0000FA43788BFF1F768BFF1F6086FF1F6085FF1FAA
:400B0000D080FF1F000034430000D0410000F04001233B65A44B1B684FF00001184604F007F80346002B07D04FF00001786C03F0E1FF0346002B11D19B4B1B684FF0000187
:400B4000184603F0D7FF0346002B0FD04FF00001786C03F0EDFF0346002B07D0934B4FF000021A60924B4FF000021A60F96A786C03F018FD0346184603F094F984A3D3E923
:400B8000002303F0E3F903460C4625461C46864B1B68184603F086F97FA3D3E9002303F0D5F902460B462046294603F01BF803460C4625461C467F4B1B68184603F072F910
:400BC00077A3D3E9002303F0C1F902460B462046294603F007F803460C4625461C46734B1B68184603F05EF902460B462046294602F0FAFF03460C461846214603F056FCA0
:400C000003467B65684B1B686A4A1360F96A786C03F0C8FC03461A46634B1A60644B1B68624A1360786D03F073FD0246604B1A607B6D002BB8BF5B424B337B657B6DB3F544
:400C40007A7F02DD4FF47A737B65796D386DFFF729FD4FF00001386C03F04CFF0346002B02D00023FB6301E00123FB637968386C03F098FC03461A464F4B1B681946104612
:400C800003F092FC03461A464B4B1A604B4B1B681946386C03F086FC03461A46484B1A60464B1B684FF00001184603F041FF0346002B07D04FF00001386C03F01BFF034649
:400CC000002B11D13D4B1B684FF00001184603F011FF0346002B0BD04FF00001386C03F027FF0346002B03D0334B4FF000021A60324A3B6C13607968386C03F053FC0346C9
:400D00003969184603F058FD03461C462A4B1B68F968184603F050FD03461946204603F043FC03461C46264B1B68B968184603F043FD03461946204603F036FC034618465E
:400D400003F000FF03467B617B69002BB8BF5B42C3F57F43FF337B617969F86BFFF7C8FC1848FFF707FCF861174B1B681946F86903F0C0FE0346002B00D102E0134B012202
:400D80001A6000BF5837BD46B0BD00BFAFF300809CC420B07268204079E92631082C1340931804560E2D0B404485FF1F5085FF1F4C85FF1F4885FF1F5485FF1F5C85FF1F3B
:400DC0005885FF1F6085FF1FD880FF1F608BFF1F90B583B000AF62B600F0AAFE01F0FEF801F060F941F6FF734FF480420121022001F0C2F803461A466E4B1A7041F6FF733C
:400E00004FF480420121022001F0A4F903461A46694B1A7000F084FD03461A46674B1A7000F07EFD03461A46654B1A70634B18780623FE224FF4807100F0A0FD604B1878CD
:400E40000623FE224FF4807100F098FD5B4B1B785C4A92B245F6A031184600F0CFFD584B1B78594A92B245F6A231184600F0C6FD504B1A78514B1B781946104600F0E2FC0C
:400E80004D4B1A784E4B1B781946104600F0DAFC00F06CFF01F090F901F0F8F801F092FA00F09EFE01F01CFCFFF7E2FB00237B605AE080233B607B685B00184603F028FC9D
:400EC0000246424B1B681946104603F075FC03461C463F4B1B68184603F01AFC03461946204603F069FC03461C46386803F010FC03461946204603F013FD0346184601F009
:400F00002DFE0146334A7B6842F823107B685B00184603F0FDFB02462C4B1B681946104603F04AFC03461C46294B1B68184603F0EFFB03461946204603F03EFC03461C46F8
:400F4000386803F0E5FB03461946204603F0E8FC0346184601F042FE01461F4A7B6842F823107B6801337B607B687F2BA1DD1B4B1B68002B05D1FFF7E3FB184B01221A6086
:400F80000CE0164B1B68012B02D1FFF757FC05E0124B1B68022B01D1FFF7BEFC104B1B78DBB2002BE3D00D4B00221A600C4B00221A70DCE7778BFF1F758BFF1F708BFF1F3B
:400FC000748BFF1F6085FF1F6086FF1FD080FF1FCC80FF1F6087FF1F6089FF1F608BFF1F718BFF1F80B582B000AF786039603A680021786803F070FE00BF0837BD4680BDFD
:4010000080B584B000AFF860B9607A607A68B968F86803F0EBFD00BF1037BD4680BD00BF80B483B000AF0346FB71FEE780B487B000AF7860396000233B6100237B6127E00A
:401040007B699B007A6813441B68BB60BB68FB73BB6823F0FF03BB6014E03B695B003A6813441B781A46BB68134419463B695B003A6813445B780B703B6901333B61FB7B4E
:40108000013BFB73FB7B002BE7D17B6901337B617B691B2BD4D900BF1C37BD4680BC704780B582B000AF454B01221A80444B18221A70444B00221A80434B58221A70434B39
:4010C00024221A80424B18221A70424B2A221A80414B18221A70042240494148FFF790FF404B06221A70404B52221A703F4B404A1278D2B21A703F4B40F611321A803E4BA7
:4011000041F251221A800023FB7019237B6014E0FB785B00DAB2394B1B78DBB203F00103DBB21343DBB203F00303FB704FF4F07001F0DEFB7B68013B7B607B68002B02D0C6
:40114000FB78032BE4D17B68002B02D10320FFF767FF2B4B4FF480721A80294B07221A70284B00221A70284B48221A70244B00221A70264B00221A70254B02221A70254B01
:4011800004221A70244A244B1B78DBB243F00F03DBB21370214A214B1B78DBB243F00103DBB213701E4A1E4B1B78DBB263F07F03DBB2137000BF0837BD4680BD80400040DB
:4011C000824000408440004086400040884000408A4000408C4000408E400040D8050048004100400043004000420040A14600400F0100492242004020420040254200409F
:4012000004400040064000400840004009400040014000400B400040A2430040A1430040A043004080B582B000AF224B1B78FB71214B1B78BB71214B1B787B71204AFB79A5
:4012400003F00703DBB213701E4AFB791B09DBB21370194ABB7943F00303DBB21370174A7B7943F00303DBB21370174B80221A70164B80221A70164B80221A70154B0822A1
:401280001A70154B20221A70144B20221A70144B08221A700A2000F0EBFB084A7B791370054ABB7913700F4B44221A7000BF0837BD4680BDCF010049F8460040F9460040CD
:4012C0006E5800406F5800401D5100400159004009590040205B0040235B00402B5B0040585B00407658004080B483B000AF0346FB71FB79012B24D8FA79FB791344FB71A6
:40130000FB79124A52F82330FA79104951F822201178FA790E48825C0A43D2B21A70FB790133FB71FB79094A52F82330FA79074951F822201178FA790548825C0A43D2B2A0
:401340001A7000BF0C37BD4680BC7047644E0000744E000080B483B000AF0346FB71FB79012B28D8FA79FB791344FB71FB79144A52F82330FA79124951F822201178FA799E
:401380001048825CD243D2B20A40D2B21A70FB790133FB71FB790A4A52F82330FA79084951F822201178FA790648825CD243D2B20A40D2B21A7000BF0C37BD4680BC70472D
:4013C000644E0000744E000080B582B000AF72B6434A434B1B78DBB243F00403DBB213700023FB7113E0FA7913465B0013445B003C4A13443B603B681A683B689B889BB2AB
:4014000019461046FFF7EEFDFB790133FB71FB79062BE8D934494FF09040FFF707FE04213248FFF7DFFD042231493248FFF7E8FD314A314B1B78DBB243F00203DBB2137050
:401440002E4A2E4B1B78DBB243F00203DBB213702B4A2B4B1B78DBB243F04003DBB21370284A284B1B78DBB243F01003DBB21370082225492548FFF7C3FD0A222449254866
:40148000FFF7BEFD082224492448FFF7B9FD0A2223492448FFF7B4FD082223492348FFF7AFFD234A224B1B78DBB243F00803DBB21370204B61221A70FFF7F2FD1D4BC1228E
:4014C0001A701D4B01221A70FFF7ACFE0E220C491A48FFF795FD00BF0837BD4680BD00BFE8460040784E00007000004800760040DC05004808760040035001401350014080
:40150000A0430040C2430040A805004802510040B0050048C0510040BC05004812510040C405004820510040D005004832510040224300400048004004000840B043004073
:4015400080B500AF03F024FB03461B680C2B00D1FEE7FEE780B586B000AF224B7B61224B3B61204B7B6135E03B691B68FB603B695B68BB603B699B683B6000237B600CE0DF
:40158000FB681A68BB681A60BB680433BB60FB680433FB607B6804337B607A683B689A42EED13B69DB683B6000237B6008E0BB6800221A60BB680433BB607B6804337B6099
:4015C0007A683B689A42F2D13B6910333B617B69013B7B617B69002BC6D103F0DFFAFFF7F7FBFEE701000000CC52000080B582B000AF194B194A1A60194A194B1B6843F412
:401600000073136000237B600FE07B68032B04D8144A7B6852F8233000E0134B13497A6841F822307B6801337B607B682F2BECD90F4B1B78DAB20F4B1A700F4B0B4A1A608B
:40164000FFF7C2FE00F01CF80C4B00221A6000BF0837BD4680BD00BF0CED00E00004FA0514ED00E000000000411500000080FF1FBC760040C480FF1F08ED00E0C080FF1F08
:4016800080B483B000AF134B7F221A70124B80221A707F23FB710CE0FB79DB0003F1804303F5F043FA79013AD2B21A70FB79013BFB71FB79002BEFD1FB79DB0003F180439A
:4016C00003F5F04300221A7000BF0C37BD4680BC704700BFDD80FF1FDC80FF1F80B485B000AF03460A46FB711346BB710123FB60FB79172B2FD8BB79002B0ED0FB791A01BD
:40170000184B1344FA791101164A0A441278D2B242F02002D2B21A700DE0FB791A01114B1344FA7911010F4A0A441278D2B222F02002D2B21A70FB791A010A4B1344FA79F3
:401740001101084A0A441278D2B242F00102D2B21A700023FB60FB6818461437BD4680BC704700BF1070004080B485B000AF03460A46FB711346BB710123FB60FB79172B90
:401780001BD8FB791A01104B13441B78DBB223F00E03FB72FB791A010B4B1344BA795200D2B252B202F00E0251B297F90B200A4352B2D2B21A700023FB60FB681846143752
:4017C000BD4680BC704700BF1070004080B485B000AF0346FB710B46BB8013467B800123FB60BB8841F6FF72934202D14FF40053BB807B8841F6FF72934202D14FF40053FB
:401800007B80FB79172B17D8FB79DB0003F1804303F5EC430433BB60BB68BA881A80FB79DB0003F1804303F5EC430633BB60BB687A881A800023FB60FB6818461437BD46BD
:4018400080BC704780B485B000AF03460A46FB711346BB710123FB60FB79172B07D8FB791A01064B1344BA795A720023FB60FB6818461437BD4680BC704700BF107000408A
:4018800090B484B000AF0446084611461A462346FB710346BB710B467B7113463B710123FB60FB79172B34D8FB79DB0003F1804303F5EC43BA7902F07F02D1B27A79D201C9
:4018C000D2B20A43D2B21A70FB79DB0003F1804303F5EC433A7E1201D1B23A7902F00F02D2B20A43D2B25A70FB79DB0003F1804303F5EC433A7F02F00F02D2B29A70FB79CE
:40190000DB0003F1804303F5EC430022DA700023FB60FB6818461037BD4690BC704700BF80B582B000AFFF23FB7100F0E9FF0346BB71104B1B78182B12D90F4B1B78FB71D1
:401940000C4B1B78013BDAB20A4B1A70FB79DB0003F1804303F5F0431B78DAB2064B1A70BB79184600F0D0FFFB7918460837BD4680BD00BFDC80FF1FDD80FF1F90B484B0DD
:4019800000AF0446084611461A462346FB710346BB800B46BB711346FB700123FB6097F90730002B23DBBB8823F47F6323F00F039BB2002B1BD1FB79DB0003F1804303F55D
:4019C000F043BB60BB68BA881A80FB79DB0003F1804303F5F043BA799A70FB79DB0003F1804303F5F043FA78DA700023FB60FB6818461037BD4690BC704700BF80B485B08B
:401A000000AF0346FB710B46BB8013467B800123FB6097F90730002B17DBFB79DB0003F1804303F5F0430433BB60BB68BA881A80FB79DB0003F1804303F5F0430633BB60F8
:401A4000BB687A881A800023FB60FB6818461437BD4680BC704700BF80B483B000AF0346FB7101BE00BF0C37BD4680BC704700BF80B582B000AF0346FB80FB88054A1278F1
:401A800002FB03F3184600F033FF00BF0837BD4680BD00BFEC80FF1F80B584B000AF03463960FB710F4B1B68FB60FB791F2B02D90020FFF7D1FFFB7903F01F0310339B00A8
:401AC000FA6813441B68BB60FB7903F01F0310339B00FA6813443A681A60BB6818461037BD4680BD08ED00E080B582B000AF03460A46FB711346BB71BB79072B02D9002075
:401B0000FFF7AAFFFB791F2B02D90020FFF7A4FFFB7903F01F0303F1604303F56443BA795201D2B21A7000BF0837BD4680BD00BF80B500AF00F048F8044800F015F80720E0
:401B400000F024F800F034F800BF80BD511B000080B500AF034B01221A7000F0D9FE00BF80BD00BF718BFF1F80B485B000AF7860054B1B68FB60FB6858337A681A6000BF33
:401B80001437BD4680BC704708ED00E080B483B000AF0346FB71054AFB795B01DBB2137000BF0C37BD4680BC704700BF06E400E080B400AF034B40221A6000BFBD4680BC89
:401BC000704700BF00E100E080B400AF034B40221A6000BFBD4680BC704700BF80E100E080B500AF064B1B78002B04D100F00AF8034B01221A7000F02DF800BF80BD00BF67
:401C0000648BFF1F80B500AF0C4B72221A700C4B20221A700B490420FFF73EFF07210420FFF762FF084B06221A70084B47221A70074B02221A7000BF80BD00BF8965004099
:401C40008A650040C91C00002B6500403B6500408465004080B582B000AF00F051FE0346FB71144A134B1B78DBB243F02003DBB21370114A104B1B78DBB243F01003DBB282
:401C800013700E4A0D4B1B78DBB243F01003DBB213700B4B10221A600A4B10221A6000F04BF8FB79184600F02FFE00BF0837BD4680BD00BF996500409A65004094650040A3
:401CC00080E200E000E100E080B400AF17E0154B1B889BB2FF2B02D9124B00221A80124B104A128892B21146104A525CD2B21A700C4B1B889BB201339AB20A4B1A80094B8D
:401D00001B889AB20A4B1B889A4206D0094B1B78DBB203F00403002BD9D000BFBD4680BC704700BF668BFF1F486500407C8BFF1F688BFF1F6465004080B400AF094A094B8F
:401D40001B78DBB243F00403DBB21370064A064B1B78DBB243F00403DBB2137000BFBD4680BC7047A2430040B243004080B500AF064B1B78002B04D100F00AF8034B0122B4
:401D80001A7000F025F800BF80BD00BF6B8BFF1F80B500AF07210220FFF7A6FE09490220FFF77AFE084A084B1B78DBB243F00603DBB213700C2000F071F8044B00221A8072
:401DC00000BF80BD6D1F000001590040848CFF1F80B582B000AF00F093FD0346FB71264A254B1B78DBB243F00103DBB21370234A224B1B78DBB243F00103DBB21370204B55
:401E00001B78BB71BB7943F00203BB71BB7943F00103BB711A4ABB7913701A4B04221A70194A194B1B78DBB223F04003DBB21370154A154B1B78DBB243F00303DBB213700F
:401E4000124B0E221A70124B02221A70114A114B1B78DBB243F00803DBB213700A20FFF707FE0D4B04221A60FB79184600F04CFD00BF0837BD4680BDAB430040BB43004049
:401E80000359004006590040055900400059004014460040275B004080E200E080B584B000AF0346FB71FB790A2B07D00C2B02D0082B06D008E0C423FB730BE08423FB7376
:401EC00008E04423FB7305E0C423FB730020FFF7C3FD00BF054AFB7B1370FB79184600F007F800BF1037BD4680BD00BF0259004080B584B000AF0346FB71FB790A2B08D05F
:401F00000C2B02D0082B08D00BE04FF48053FB600DE04FF48063FB6009E04FF48073FB6005E00023FB600020FFF796FD00BF0C4B00221A80FB6842F2107202FB03F303F567
:401F40008063002B01DA03F2FF73DB121A46054B1A60054B00221A8000BF1037BD4680BD7C8CFF1F808CFF1F7E8CFF1F80B400AF00BFBD4680BC704790B585B002AF044623
:401F8000084611461A462346FB710346BB710B46BB8013467B80104B00221A700E4B1878BA79F97900230193002300930023FFF767FC094B1B787A88B9881846FFF706FCF4
:401FC000054B1B7802211846FFF7CEFB024B1B7818460C37BD4690BDF480FF1F80B500AF00F048F8044800F015F8072000F024F800F034F800BF80BDFD1F000080B400AFB4
:40200000034B01221A7000BFBD4680BC704700BF788BFF1F80B485B000AF7860054B1B68FB60FB6840337A681A6000BF1437BD4680BC704708ED00E080B483B000AF03468C
:40204000FB71054AFB795B01DBB2137000BF0C37BD4680BC704700BF00E400E080B400AF034B01221A6000BFBD4680BC704700BF00E100E080B400AF034B01221A6000BFBA
:40208000BD4680BC704700BF80E100E080B400AF034B04221A6000BFBD4680BC704700BF80E100E080B500AF00F048F8044800F015F8072000F024F800F034F800BF80BDFC
:4020C000C520000080B400AF034B01221A7000BFBD4680BC704700BF768BFF1F80B485B000AF7860054B1B68FB60FB6844337A681A6000BF1437BD4680BC704708ED00E061
:4021000080B483B000AF0346FB71054AFB795B01DBB2137000BF0C37BD4680BC704700BF01E400E080B400AF034B02221A6000BFBD4680BC704700BF00E100E080B400AF42
:40214000034B02221A6000BFBD4680BC704700BF80E100E090B585B002AF0446084611461A462346FB710346BB710B46BB8013467B80104B01221A700E4B1878BA79F97984
:4021800000230193002300930123FFF779FB094B1B787A88B9881846FFF718FB054B1B7802211846FFF7E0FA024B1B7818460C37BD4690BDF580FF1F80B500AF064B1B7833
:4021C000002B04D100F00AF8034B01221A7000F025F800BF80BD00BF6C8BFF1F80B500AF07210320FFF780FC09490320FFF754FC084A084B1B78DBB243F00603DBB21370A8
:402200000C2000F071F8044B00221A8000BF80BDB9230000095900408E8CFF1F80B582B000AF00F06DFB0346FB71264A254B1B78DBB243F00203DBB21370234A224B1B7884
:40224000DBB243F00203DBB21370204B1B78BB71BB7943F00203BB71BB7943F00103BB711A4ABB7913701A4B04221A70194A194B1B78DBB223F04003DBB21370154A154BF4
:402280001B78DBB243F00303DBB21370124B0E221A70124B02221A70114A114B1B78DBB243F00803DBB213700A20FFF7E1FB0D4B08221A60FB79184600F026FB00BF083795
:4022C000BD4680BDAB430040BB4300400B5900400E5900400D59004008590040164600402F5B004080E200E080B584B000AF0346FB71FB790A2B07D00C2B02D0082B06D099
:4023000008E0C423FB730BE08423FB7308E04423FB7305E0C423FB730020FFF79DFB00BF054AFB7B1370FB79184600F007F800BF1037BD4680BD00BF0A59004080B584B0E2
:4023400000AF0346FB71FB790A2B08D00C2B02D0082B08D00BE04FF48053FB600DE04FF48063FB6009E04FF48073FB6005E00023FB600020FFF770FB00BF0C4B00221A806A
:40238000FB6842F2107202FB03F303F58063002B01DA03F2FF73DB121A46054B1A60054B00221A8000BF1037BD4680BD908CFF1F888CFF1F8C8CFF1F80B400AF00BFBD4619
:4023C00080BC704780B400AF034B08221A6000BFBD4680BC704700BF80E100E080B500AF064B1B78002B04D100F00AF8034B01221A7000F04FF800BF80BD00BF6D8BFF1FA3
:4024000080B582B000AF204B1B78DBB223F03F03FB711D4AFB7943F00A03DBB213701B4A1A4B1B78DBB243F00103DBB21370184A174B1B78DBB243F00103DBB213704FF470
:402440007A7000F037F84FF47A7000F051F8002000F05EF8002000F06BF800F051FA0346BB710A4A094B1B78DBB243F01003DBB21370BB79184600F047FA00F02BF800BFB1
:402480000837BD4680BD00BF76650040966500409765004080B400AF054A054B1B78DBB263F07F03DBB2137000BFBD4680BC70477665004080B483B000AF0346FB80044ACD
:4024C000FB88138000BF0C37BD4680BC704700BF0C6A004080B500AF01E000F045F800F037F8034603F01003002BF6D100BF80BD80B483B000AF0346FB80044AFB881380CD
:4025000000BF0C37BD4680BC704700BF8C6A004080B483B000AF0346FB80044AFB88138000BF0C37BD4680BC704700BF4C6A004080B483B000AF0346FB71044AFB791370B3
:4025400000BF0C37BD4680BC704700BF8665004080B400AF034B1B78DBB21846BD4680BC704700BF6665004080B400AF034B1B889BB21846BD4680BC704700BFAC6A004080
:4025800080B485B000AF0346FB710B4B1B78DBB223F00203FB730849FB795B00DBB203F00203DAB2FB7B1343DBB20B7000BF1437BD4680BC704700BF0051004080B485B094
:4025C00000AF0346FB710B4B1B78DBB223F00803FB730849FB79DB00DBB203F00803DAB2FB7B1343DBB20B7000BF1437BD4680BC704700BF0051004080B485B000AF034639
:40260000FB710B4B1B78DBB223F02003FB730849FB795B01DBB203F02003DAB2FB7B1343DBB20B7000BF1437BD4680BC704700BF0051004080B485B000AF0346FB710B4B7D
:402640001B78DBB223F04003FB730849FB799B01DBB203F04003DAB2FB7B1343DBB20B7000BF1437BD4680BC704700BF0051004080B485B000AF0346FB710B4B1B78DBB25F
:4026800023F02003FB730849FB795B01DBB203F02003DAB2FB7B1343DBB20B7000BF1437BD4680BC704700BF3051004080B485B000AF0346FB71094B1B78DBB203F07F031C
:4026C000FB730649FB79DB01DAB2FB7B1343DBB20B7000BF1437BD4680BC70473051004080B582B000AF0023FB7106E0FB791846FEF730FEFB790133FB71FB79012BF5D9AA
:40270000034BFF221A7000BF0837BD4680BD00BFF680FF1F80B582B000AF0346FB710A4B1B78FF2B04D0084B1B781846FEF712FEFB791846FEF7D8FD034AFB79137000BF76
:402740000837BD4680BD00BFF680FF1F80B500AF064B1B78002B04D100F00AF8034B01221A7000F04DF800BF80BD00BF6E8BFF1F80B582B000AF1F4B1B78DBB223F03F03D6
:40278000FB711C4AFB7943F00903DBB213701A4A194B1B78DBB243F00103DBB21370174A164B1B78DBB243F00103DBB21370642000F036F8642000F051F8002000F05EF867
:4027C000002000F06BF800F09BF80346BB710B4A0A4B1B78DBB243F01003DBB21370BB79184600F091F800F02BF800BF0837BD4680BD00BF756500409465004095650040A6
:4028000080B400AF054A054B1B78DBB263F07F03DBB2137000BFBD4680BC70477565004080B483B000AF0346FB80044AFB88138000BF0C37BD4680BC704700BF086A00409B
:4028400080B500AF01E000F045F800F037F8034603F01003002BF6D100BF80BD80B483B000AF0346FB80044AFB88138000BF0C37BD4680BC704700BF886A004080B483B07C
:4028800000AF0346FB80044AFB88138000BF0C37BD4680BC704700BF486A004080B483B000AF0346FB71044AFB79137000BF0C37BD4680BC704700BF8565004080B400AFC4
:4028C000034B1B78DBB21846BD4680BC704700BF6565004080B400AF034B1B889BB21846BD4680BC704700BFA86A0040000000000230800803D000BF01380046FCD1704778
:40290000EFF3108072B6704780F31088704700BF80B400AF054B1B78DBB203F004039B08DBB21846BD4680BC704700BF824500402DE9F04120F00045B5F1A14F0446064666
:4029400008DBB5F1FF4F6FDC002840F3A0806F48BDE8F0816E4B9D4277DCB5F1445F68DB4FF0FF372146204601F026FF0146804601F022FF0546674901F01EFF664901F056
:4029800013FE294601F018FF644901F00DFE294601F012FF624901F007FE294601F00CFF604901F001FE294601F006FF5E4901F0FBFD414601F000FF5C498046284601F09A
:4029C000FBFE5B4901F0EEFD294601F0F5FE594901F0E8FD294601F0EFFE574901F0E2FD294601F0E9FE554901F0DCFD294601F0E3FE7B1C014640464CD001F0D5FD21463C
:402A000001F0DAFE4E4B4F4D53F8271001F0CAFD214601F0C7FD014655F8270001F0C2FD002E30DBBDE8F081014601F0BDFDBDE8F081454901F0B8FD4FF07E5102F078F8DC
:402A400000288DD02046BDE8F08100F0C3F83F4B04469D4229DCA3F5D0039D4244DC014601F0A2FD4FF07E5101F09CFD4FF080410546204601F098FD0146284601F050FFED
:402A8000002704466EE700F10040BDE8F0813048BDE8F08101F088FD214601F08DFE0146204601F07FFDBDE8F0812A4B9D4214DC4FF07F5101F076FD4FF07F51054620467B
:402AC00001F07AFE4FF07E5101F06EFD0146284601F026FF0227044644E701461E4801F01FFF032704463DE74FF07E5101F05AFD4FF07E510546204601F056FD0146284638
:402B000001F00EFF012704462CE700BFDB0FC93FFFFFDF3ED769853C59DA4B3D356B883D6E2EBA3D2549123EABAAAA3E21A215BD6BF16E3D95879D3D388EE33DCDCC4C3EFC
:402B4000A44E0000B44E0000CAF24971FFFF973FDB0FC9BFFFFF1B40000080BF00B51C4A20F00043934283B018DDB3F1FF4F05DB014601F017FD03B05DF804FB694600F0DE
:402B80008BF900F00302012A15D0022A0CD0CAB101220199009800F005FFECE7002100F0EDFA03B05DF804FB0199009800F0E6FA00F10040DFE70199009800F0F3FE00F1F1
:402BC0000040D8E70199009800F0D8FAD3E700BFD80F493F20F00040704700BF00B51D4A20F00043934283B019DDB3F1FF4F05DB014601F0D7FC03B05DF804FB694600F044
:402C00004BF900F00300012818D002280ED0D0B10199009800F0B2FA00F10040EBE70022002100F0BFFE03B05DF804FB01220199009800F0B7FE00F10040DCE701990098DB
:402C400000F09CFAD7E701220199009800F0AAFED1E700BFD80F493F2DE9F04F8BB004460D4600F055F8284B064693F900A00F46BAF1FF3F12D022462B462046294601F029
:402C8000FFFB834650B94FF000084FF000092046294642464B4601F0CBFB20B9304639460BB0BDE8F08F194A0123CDF820B0CDE90445CDE9024501920093BAF1000F15D08A
:402CC00042464B464046494601F06AFABAF1020FCDE906010CD101F05BFF21230360089B63B9DDE906010BB0BDE8F08FCDE90689684600F0CDFE0028F1D1ECE701F048FFFB
:402D0000089B0360EDE700BFF780FF1FC44E00002DE9F0415F4E0C46B6460E407645054600F0988000290B46024674DD5FEA215E7FD0AEF2FF3EC3F313031EF0010F43F48D
:402D4000801363D100273E4603EBD2710B444FEA6E0E520016204FF4001174189C424FEAD2754FEA420202DC1B1B66180F44013805EB43034FEA5101EFD1844620244FF07D
:402D8000004109E020D003EBD275013C4FEA51012B444FEA420220D09E4201EB0C05F1DA002D05EB010C09DBB0469542A3EB060300D9013B4646521B0844E4E7BCF1000F25
:402DC000F2DB06F10108F0E7954217D8002D05EB010C49DB98460023ECE7134310D140087B1003F17F5303F50013FA0703EB0E57394648BF40F00040BDE8F0813346C2E7EA
:402E0000411C35D000F001031844E8E75B0003EBD273520096E721F000460643ECD079BB8E46D30AAEF1150E5205002BF9D0DD0221D4002100E001465B00DC0201F101001E
:402E4000F9D5C0F1200422FA04F42343C1EB0E0E82406EE702460B4601F078F82A46234600F0C2FEBDE8F081BCF1000FA9DAB1E701372046B4E720244FF0FF310020E2E711
:402E800002460B4600F0AEFE02460B4601F088F9B2E700BF0000F07F2DE9F04FAA4A20F00044944289B067DDA84A0D469442074601461CDC0028A64940F3EA8001F072FB62
:402EC000A44B24F00F049C42064663D0A24901F069FB01463046296001F064FB9E4901F061FB01236860184609B0BDE8F08F9B4A944261DDB4F1FF4F46DAE615863EA4EBD4
:402F0000C654204601F01EFE01F002FC034620461946059301F046FB4FF0874101F04CFC804601F00FFE01F0F3FB044640462146069401F037FB4FF0874101F03DFC002114
:402F4000079001F0CDFD002800F0C3802046002101F0C6FD002814BF0123022380480221019000913246294605A800F0CBF9002FC0F2A580034603E0002208604A60002347
:402F8000184609B0BDE8F08F01F00CFB002368602860F5E7734901F005FB7349044601F001FB01462046296001F0FCFA6E4901F0F9FA01236860E3E7FFF70CFE6B49804607
:402FC00001F0FAFB4FF07C5101F0EEFA01F0BAFD064601F09DFB5E49834601F0EDFB0146404601F0DFFA5C498146584601F0E4FB1F2E82460146484618DC5D4B721E53F86E
:40300000223024F0FF029A4210D001F0CBFA8046C5F800804146484601F0C4FA514601F0C1FA002F686056DB3346A9E701F0BAFAE215C0F3C753D31A082B8046E8DD4949D6
:403040005846039201F0B8FB80460146484601F0A9FA01460446484601F0A4FA414601F0A1FA80464049584601F0A6FB414601F099FA01468246204601F094FA039AC0F3BB
:40308000C753D21A192A804641DC2860A146C1E701F08AFA2F4B24F00F049C42064623D02D4901F081FA01463046296001F07AFA294901F079FA4FF0FF33686060E795E83A
:4030C0000C0002F1004103F10042296043426A6056E7032342E708F1004800F10040C5F80080686073424BE71E4901F05DFA1E49044601F059FA01462046296001F052FA81
:40310000194901F051FA4FF0FF33686038E71949584601F051FB01468046204601F042FA01468146204601F03DFA414601F03AFA04461149584601F03FFB214601F032FA83
:4031400082460146484660E7D80F493FE3CB1640800FC93FD00FC93F43443537800F49434C4F00000044353708A3852E84F9223FCC4E000000A3852E32318D242DE9F84310
:4031800020F00044B4F1485F06460F4649DA01F0D9FC002800F09D803146304601F00CFB05464E4901F008FB4D4901F0FDF9294601F002FB4B4901F0F5F9294601F0FCFA52
:4031C000494901F0F1F9294601F0F6FA474901F0E9F9294601F0F0FA454901F0E5F9294601F0EAFA80464FF07C51284601F0E4FA41460446284601F0DFFA3946054630466C
:4032000001F0DAFA0146284601F0CCF90146204601F0C8F901464FF07E5001F0C3F9BDE8F883014601F0C8FA05462C4901F0C4FA2B4901F0B9F9294601F0BEFA294901F0E3
:40324000B1F9294601F0B8FA274901F0ADF9294601F0B2FA254901F0A5F9294601F0ACFA234901F0A1F9294601F0A6FA214B80469C42B8DD204B9C4227DC04F17F44214675
:403280004FF07E5001F08EF981464FF07C51284601F092FA214601F085F941460446284601F08AFA39460546304601F085FA0146284601F077F90146204601F073F901462A
:4032C000484601F06FF9BDE8F883DFF834900B4CDBE74FF07E50BDE8F88300BF4ED747ADF6740F317CF29334010DD037610BB63AABAA2A3D9999993E0000483F0000903EA4
:403300000000383F2DE9F04F1C46DFB00891611E01910A936899BB4B029053F821300793D31E48BF131DDB1023EAE37319460B930133A2EBC3030693019A079B8D1A9C188F
:4033400015D42C44013421AE699F08E057F8250001F0DEF90135A54246F8040F07D0002DF4DA01350020A54246F8040FF7D1079B002B2ADB079B0A9A19469346019E49AF47
:4033800001EB0208019B002BC0F2A18122ABCBEB060503EB8505029B4FF00009A3F1040A22AB03EB86045AF8041F54F8040901F003FA0146484601F0F7F8AC428146F2D1C1
:4033C0000136464547F8049FDCD1079B0EA91E4603F18043023B9B001A1D0A440B440D920C935EAB03EB8603002E53F8508C23DD5EAB03EB8604543C0DAD49AF4FF06E5188
:40340000404601F0D9F901F09DFB01F081F94FF08741814601F0D0F90146404601F0C2F801F090FB54F8041945F8040F484601F0BBF8BC428046E1D14046DDF818804146F8
:4034400000F06EFB4FF07851044601F0B5F900F021FB4FF0824101F0AFF90146204601F0A1F8044601F06EFB074601F051F901462046444601F096F8002C054640F30E8109
:40348000701E0EAB53F82030C8F1080243FA02F101FA02F29B1AC8F1070A0EAA42F820300F4443FA0AFABAF1000F30DD002E07F1010740F34D82002214460DA907E0C3F52B
:4034C00080700BB108600124013296420BDD51F8043F002CF3D00132C3F1FF0396420B604FF00104F3DC069B002B0DDD012B00F0DD80022B08D1721E0EAB53F822300EA914
:4035000003F03F0341F82230BAF1020F7CD00021284601F0E5FA002800F09080079B741EA34210DC06F180430EAA013B0D9802EB8303002253F80419834242EA0102F9D129
:40354000002A40F0DE80079B0EAA013B52F82330002B40F0FB810C9B012753F804290137002AFAD0F219731C9342099240DC0B9AB90003EB02080A9A08F18048039169999F
:40358000164408F1FF38B20001EB880822A99B00049201EB020A4AAA02EB0309043B0593002658F8040F01F0B3F8019B4AF8040B002B1FDB049B0027F418059BF51822AB18
:4035C0001C441D44029BA3F1040B5BF8041F54F8040901F0F1F80146384600F0E5FFAC420746F2D1039B04369E4249F8047BD8D1099EF6E6039B043600279E4249F8047B47
:40360000CFD1F5E76452000029464FF07E5000F0C9FF0546002C3FF47AAF06994FF07E5000F07EFA0146284600F0BCFF05460021284601F055FA00287FF470AF0297069FCB
:403640002846794200F06CFA4FF08741044601F065FA002800F081814FF06E51204601F0ABF801F06FFA01F053F84FF08741054601F0A2F80146204600F094FF01F062FA28
:403680000EAB43F82600284601F05CFA3B460833741C06930EAB43F8240047E010D1731E0EAA52F823304FEA232AFCE6721E0EAB53F822300EA903F07F0341F8223023E741
:4036C0004FF07C5101F02AFA50B982461FE701364FF00009464547F8049F7FF453AE74E6002E07F10107C8BF4FF0020A3FF7E3AE29464FF07E5000F055FF4FF0020A0546FB
:4037000005E7069A0EAB53F82430083A0297069263B904F18043013B0EA901EB830353F80419013C083A0029F9D0069206994FF07E5000F0F5F9002C0546C0F21881A30099
:403740004AAA1F1D02EB030901930EAB1F4409F1040657F8040D00F0DBFF294601F02CF84FF06E5146F8040D284601F025F80EAB9F420546EDD1A346DDF81C80A9F1040951
:403780000027CDF80CA0B8F1000FB8BF002615DB824CCA4682480026002503E0AF420DDB54F8040F5AF8041F01F006F80146304600F0FAFE0135A8450646EFDA5EAB03EBE6
:4037C0008703A9F1040943F8A06C48AB994507F10107D8D1689B5C46DDF80CA0032B5AD8DFE803F08D5F5F02002C40F3BE80019A5EA98B1836AE53F8A07CB51855F8049C63
:403800003946484600F0D0FE80460146484600F0C9FE394600F0C8FE286045F8048DAE424746EBD1012C40F3A080019B5EAAF418254602EB030858F8A06C0DF1DC0955F888
:40384000048C3046414600F0AFFE07460146404600F0A8FE314600F0A7FE286045F8047DA9453E46EBD10020043438AD54F8041D00F09AFEA542F9D1BAF1000F6AD0369A47
:40388000379B00F1004002F1004203F10043089CA06022606360029B03F007005FB0BDE8F08F019D36AE04353544002055F8041D00F07AFEB542F9D1BAF1000F39D0089A96
:4038C00000F1004301461360369800F06BFE002C0BDD36AE0125013556F8041F00F064FEAC42F8DABAF1000F50D0089A00F100435360029B03F007005FB0BDE8F08F019B13
:403900005EAA13440020A3F19C05013C55F8041D00F04AFE631CF8D1BAF1000F01D000F10040089B1860029B03F007005FB0BDE8F08F089B01461860369800F033FE002C8A
:40394000D8BF0346C5DC089A5360D2E7012709E60024C8E5369A379B99E7204601F0F2F80EAB344643F82600E0E6002084E7689B032B90D801A252F823F000BF993900005E
:4039800095390000953900006B3900000346089A5360AEE700208FE70020BDE7705200000000C93F2DE9F84320F00043B3F1485F04460F46904603DA01F0C4F8002858D032
:4039C0002146204600F0F8FE05460146204600F0F3FE29490646284600F0EEFE274900F0E1FD294600F0E8FE254900F0DDFD294600F0E2FE234900F0D5FD294600F0DCFED2
:403A0000214900F0D1FD8146B8F1000F22D04FF07C51384600F0D0FE49468046304600F0CBFE0146404600F0BDFD294600F0C4FE394600F0B7FD15490546304600F0BCFE9D
:403A40000146284600F0B0FD0146204600F0AAFDBDE8F8830146284600F0AEFE0B4900F0A1FD314600F0A8FE214600F09DFDBDE8F8832046BDE8F883D3C92E2F342FD73254
:403A80001BEF3836010D50398988083CABAA2A3E002070472DE9F04120F00047FC0D7F3C162C054613DC002C80461BDB194F2741384214D0184900F077FD002101F038F813
:403AC00068B1002D1BDB28EA0700BDE8F081B7F1FF4F04D3014600F067FDBDE8F0812846BDE8F0810C4900F05FFD002101F020F80028F4D0002D08DB0020BDE8F0814FF419
:403B0000000343FA04F4A044DDE7002FE7D00348BDE8F081FFFF7F00CAF24971000080BF30F0004238B5034616D0B2F1FF4F0FD2B2F5000F0D4610D30446D20D2A44FE2A31
:403B40002EDC002A1DDD24F0FF4444EAC25038BD014600F029FD38BD38BD4FF0984100F02BFE184A0346954207DBC0F3C7520446193AE3E7144800F02BF8134900F01CFEA7
:403B800038BD12F1160F13DA4CF2503295421946F0DD0E4800F01CF80C4900F00DFE38BD19460A4800F014F8084900F005FE38BD193224F0FF4040EAC2504FF04C5100F00D
:403BC000FBFD38BDB03CFFFF6042A20DCAF2497101F0004120F000400843704781F0004102E000BF83F0004330B54FEA41044FEA430594EA050F08BF90EA020F1FBF54EAB6
:403C0000000C55EA020C7FEA645C7FEA655C00F0E2804FEA5454D4EB5555B8BF6D420CDD2C4480EA020281EA030382EA000083EA010180EA020281EA0303362D88BF30BD8D
:403C400011F0004F4FEA01314FF4801C4CEA113102D0404261EB410113F0004F4FEA03334CEA133302D0524263EB430394EA050F00F0A780A4F10104D5F1200E0DDB02FAFE
:403C80000EFC22FA05F2801841F1000103FA0EF2801843FA05F359410EE0A5F120050EF1200E012A03FA0EFC28BF4CF0020C43FA05F3C01851EBE37101F0004507D54FF091
:403CC000000EDCF1000C7EEB00006EEB0101B1F5801F1BD3B1F5001F0CD349085FEA30004FEA3C0C04F101044FEA445212F5800F80F09A80BCF1004F08BF5FEA500C50F165
:403D0000000041EB045141EA050130BD5FEA4C0C404141EB010111F4801FA4F10104E9D191F0000F04BF01460020B1FA81F308BF2033A3F10B03B3F120020CDA0C3208DD38
:403D400002F1140CC2F10C0201FA0CF021FA02F10CE002F11402D8BFC2F1200C01FA02F120FA0CFCDCBF41EA0C019040E41AA2BF01EB0451294330BD6FEA04041F3C1CDAA1
:403D80000C340EDC04F11404C4F1200220FA04F001FA02F340EA030021FA04F345EA030130BDC4F10C04C4F1200220FA02F001FA04F340EA0300294630BD21FA04F02946F7
:403DC00030BD94F0000F83F4801306BF81F480110134013D4EE77FEA645C18BF7FEA655C29D094EA050F08BF90EA020F05D054EA000C04BF1946104630BD91EA030F1EBFD1
:403E00000021002030BD5FEA545C05D14000494128BF41F0004130BD14F580043CBF01F5801130BD01F0004545F0FE4141F470014FF0000030BD7FEA645C1ABF1946104646
:403E40007FEA655C1CBF0B46024650EA013406BF52EA033591EA030F41F4002130BD00BF90F0000F04BF0021704730B54FF4806404F132044FF000054FF0000150E700BF92
:403E800090F0000F04BF0021704730B54FF4806404F1320410F0004548BF40424FF000013EE700BF42004FEAE2014FEA31014FEA02701FBF12F07F4393F07F4F81F0605126
:403EC000704792F0000F14BF93F07F4F704730B54FF4607401F0004521F0004120E700BF50EA010208BF704730B54FF000050AE050EA010208BF704730B511F0004502D5CA
:403F0000404261EB41014FF4806404F132045FEA915C3FF4DCAE4FF003025FEADC0C18BF03325FEADC0C18BF033202EBDC02C2F1200300FA03FC20FA02F001FA03FE40EAA2
:403F40000E0021FA02F11444C1E600BF70B54FF0FF0C4CF4E06C1CEA11541DBF1CEA135594EA0C0F95EA0C0F00F0DEF82C4481EA030621EA4C5123EA4C5350EA013518BF3F
:403F800052EA033541F4801143F4801338D0A0FB02CE4FF00005E1FB02E506F00042E0FB03E54FF00006E1FB03569CF0000F18BF4EF0010EA4F1FF04B6F5007F64F5407480
:403FC00004D25FEA4E0E6D4146EB060642EAC62141EA55514FEAC52040EA5E504FEACE2EB4F1FD0C88BFBCF5E06F1ED8BEF1004F08BF5FEA500E50F1000041EB045170BD06
:4040000006F0004646EA010140EA020081EA0301B4EB5C04C2BFD4EB0C0541EA045170BD41F480114FF0000E013C00F3AB8014F1360FDEBF002001F0004170BDC4F10004ED
:40404000203C35DA0C341BDC04F11404C4F1200500FA05F320FA04F001FA05F240EA020001F0004221F0004110EBD37021FA04F642EB06015EEA430E08BF20EAD37070BDB3
:40408000C4F10C04C4F1200500FA04F320FA05F001FA04F240EA020001F0004110EBD37041F100015EEA430E08BF20EAD37070BDC4F1200500FA05F24EEA020E20FA04F3A3
:4040C00001FA05F243EA020321FA04F001F0004121FA04F220EA020000EBD3705EEA430E08BF20EAD37070BD94F0000F0FD101F00046400041EB010111F4801F08BF013C76
:40410000F7D041EA060195F0000F18BF704703F00046520043EB030313F4801F08BF013DF7D043EA0603704794EA0C0F0CEA135518BF95EA0C0F0CD050EA410618BF52EA6E
:404140004306D1D181EA030101F000414FF0000070BD50EA410606BF1046194652EA430619D094EA0C0F02D150EA013613D195EA0C0F05D152EA03361CBF104619460AD1CD
:4041800081EA030101F0004141F0FE4141F470014FF0000070BD41F0FE4141F4780170BD70B54FF0FF0C4CF4E06C1CEA11541DBF1CEA135594EA0C0F95EA0C0F00F0A7F81F
:4041C000A4EB050481EA030E52EA03354FEA013100F088804FEA03334FF0805545EA131343EA12634FEA022245EA111545EA10654FEA00260EF000419D4208BF964244F1B3
:40420000FD0404F5407402D25B084FEA3202B61A65EB03055B084FEA32024FF480104FF4002CB6EB020E75EB030E22BFB61A754640EA0C005B084FEA3202B6EB020E75EB4D
:40424000030E22BFB61A754640EA5C005B084FEA3202B6EB020E75EB030E22BFB61A754640EA9C005B084FEA3202B6EB020E75EB030E22BFB61A754640EADC0055EA060E60
:4042800018D04FEA051545EA16754FEA06164FEAC30343EA52734FEAC2025FEA1C1CC0D111F4801F0BD141EA00014FF000004FF0004CB6E711F4801F04BF01430020B4F131
:4042C000FD0C88BFBCF5E06F3FF6AFAEB5EB030C04BFB6EB020C5FEA500C50F1000041EB045170BD0EF0004E4EEA113114EB5C04C2BFD4EB0C0541EA045170BD41F480113E
:404300004FF0000E013C90E645EA060E8DE60CEA135594EA0C0F08BF95EA0C0F3FF43BAF94EA0C0F0AD150EA01347FF434AF95EA0C0F7FF425AF104619462CE795EA0C0FD6
:4043400006D152EA03353FF4FDAE1046194622E750EA410618BF52EA43067FF4C5AE50EA41047FF40DAF52EA43057FF4EBAE12E74FF0FF3C06E000BF4FF0010C02E000BF50
:404380004FF0010C4DF804CD4FEA410C7FEA6C5C4FEA430C18BF7FEA6C5C1BD001B050EA410C0CBF52EA430C91EA030F02BF90EA020F0020704710F1000F91EA030F58BF77
:4043C000994208BF90422CBFD8176FEAE37040F0010070474FEA410C7FEA6C5C02D150EA013C07D14FEA430C7FEA6C5CD6D152EA033CD3D05DF8040B704700BF844610468A
:4044000062468C461946634600E000BF01B5FFF7B7FF002848BF10F1000F01BD4DF808EDFFF7F4FF0CBF012000205DF808FB00BF4DF808EDFFF7EAFF34BF012000205DF814
:4044400008FB00BF4DF808EDFFF7E0FF94BF012000205DF808FB00BF4DF808EDFFF7CEFF94BF012000205DF808FB00BF4DF808EDFFF7C4FF34BF012000205DF808FB00BFDA
:404480004FEA410C7FEA6C5C02D150EA013C0AD14FEA430C7FEA6C5C02D152EA033C02D14FF0000070474FF0010070474FEA410212F5001215D211D56FF47873B3EB625257
:4044C00012D94FEAC12343F0004343EA505311F0004F23FA02F018BF404270474FF00000704750EA013005D111F0004008BF6FF0004070474FF00000704700BF4FEA410239
:40450000B2F1E04324BFB3F5001CDCF1FE5C0DD901F0004C4FEAC0024CEA5070B2F1004F40EB830008BF20F00100704711F0804F21D113F13872BCBF01F00040704741F49C
:4045400080114FEA5252C2F11802C2F1200C10FA0CF320FA02F018BF40F001004FEAC1234FEAD32303FA0CFC40EA0C0023FA02F34FEA4303CCE77FEA625307D150EA0133D5
:404580001EBF4FF0FE4040F44000704701F0004040F0FE4040F40000704700BF80F0004002E000BF81F0004142001FBF5FEA410392EA030F7FEA226C7FEA236C6AD04FEA8D
:4045C0001262D2EB1363C1BFD218414048404140B8BF5B42192B88BF704710F0004F40F4000020F07F4018BF404211F0004F41F4000121F07F4118BF494292EA030F3FD0C9
:40460000A2F1010241FA03FC10EB0C00C3F1200301FA03F100F0004302D5494260EB4000B0F5000F13D3B0F1807F06D340084FEA310102F10102FE2A51D2B1F1004F40EB9A
:40464000C25008BF20F0010040EA03007047490040EB000010F4000FA2F10102EDD1B0FA80FCACF1080CB2EB0C0200FA0CF0AABF00EBC25052421843BCBFD0401843704727
:4046800092F0000F81F4000106BF80F400000132013BB5E74FEA41037FEA226C18BF7FEA236C21D092EA030F04D092F0000F08BF0846704790EA010F1CBF0020704712F07E
:4046C0007F4F04D1400028BF40F00040704712F100723CBF00F50000704700F0004343F0FE4040F4000070477FEA226216BF08467FEA23630146420206BF5FEA412390EAA8
:40470000010F40F4800070474FF0000304E000BF10F0004348BF40425FEA000C08BF704743F0964301464FF000001CE050EA010208BF70474FF000030AE000BF50EA010209
:4047400008BF704711F0004302D5404261EB41015FEA010C02BF84460146002043F0B64308BFA3F18053A3F50003BCFA8CF2083AA3EBC25310DB01FA02FC634400FA02FCB7
:40478000C2F12002BCF1004F20FA02F243EB020008BF20F00100704702F1200201FA02FCC2F1200250EA4C0021FA02F243EB020008BF20EADC7070474FF0FF0C1CEAD0526D
:4047C0001EBF1CEAD15392EA0C0F93EA0C0F6FD01A4480EA010C400218BF5FEA41211ED04FF0006343EA501043EA5111A0FB01310CF00040B1F5000F3EBF490041EAD3718C
:404800005B0040EA010062F17F02FD2A1DD8B3F1004F40EBC25008BF20F00100704790F0000F0CF0004C08BF49024CEA502040EA51207F3AC2BFD2F1FF0340EAC250704727
:4048400040F400004FF00003013A5DDC12F1190FDCBF00F000407047C2F10002410021FA02F1C2F1200200FA02FC5FEA310040F1000053EA4C0308BF20EADC70704792F043
:40488000000F00F0004C02BF400010F4000F013AF9D040EA0C0093F0000F01F0004C02BF490011F4000F013BF9D041EA0C018FE70CEAD15392EA0C0F18BF93EA0C0F0AD0C5
:4048C00030F0004C18BF31F0004CD8D180EA010000F00040704790F0000F17BF90F0004F084691F0000F91F0004F14D092EA0C0F01D142020FD193EA0C0F03D14B0218BF2A
:40490000084608D180EA010000F0004040F0FE4040F40000704740F0FE4040F4400070474FF0FF0C1CEAD0521EBF1CEAD15392EA0C0F93EA0C0F69D0A2EB030280EA010CD9
:4049400049024FEA402037D04FF0805343EA111143EA10130CF000408B4238BF5B0042F17D024FF4000C8B4224BF5B1A40EA0C00B3EB510F24BFA3EB510340EA5C00B3EBFD
:40498000910F24BFA3EB910340EA9C00B3EBD10F24BFA3EBD10340EADC001B0118BF5FEA1C1CE0D1FD2A3FF650AF8B4240EBC25008BF20F0010070470CF0004C4CEA5020BC
:4049C0007F32C2BFD2F1FF0340EAC250704740F400004FF00003013A37E792F0000F00F0004C02BF400010F4000F013AF9D040EA0C0093F0000F01F0004C02BF490011F405
:404A0000000F013BF9D041EA0C0195E70CEAD15392EA0C0F08D142027FF47DAF93EA0C0F7FF470AF084676E793EA0C0F04D14B023FF44CAF08466EE730F0004C18BF31F07D
:404A4000004CCAD130F000427FF45CAF31F000437FF43CAF5FE700BF4FF0FF3C06E000BF4FF0010C02E000BF4FF0010C4DF804CD4FEA40024FEA41037FEA226C18BF7FEA0B
:404A8000236C11D001B052EA530C18BF90EA010F58BFB2EB030088BFC81738BF6FEAE17018BF40F0010070477FEA226C02D15FEA402C05D17FEA236CE4D15FEA412CE1D033
:404AC0005DF8040B704700BF844608466146FFE70FB5FFF7C9FF002848BF10F1000F0FBD4DF808EDFFF7F4FF0CBF012000205DF808FB00BF4DF808EDFFF7EAFF34BF012037
:404B000000205DF808FB00BF4DF808EDFFF7E0FF94BF012000205DF808FB00BF4DF808EDFFF7D2FF94BF012000205DF808FB00BF4DF808EDFFF7C8FF34BF012000205DF858
:404B400008FB00BF4FEA4002B2F1FE4F0FD34FF09E03B3EB12620DD94FEA002343F0004310F0004F23FA02F018BF404270474FF00000704712F1610F01D1420205D110F0B9
:404B8000004008BF6FF0004070474FF000007047014B1868704700BF2085FF1F70B50F4E0F4D761BB61018BF002405D0013455F8043B9847A642F9D10A4E0B4D00F072FB39
:404BC000761BB61018BF002406D0013455F8043B9847A642F9D170BD70BD00BFB0520000B0520000BC520000B0520000844641EA000313F0030349D1403A23D30B680360AD
:404C00004B6843608B688360CB68C3600B6903614B6943618B698361CB69C3610B6A03624B6A43628B6A8362CB6AC3620B6B03634B6B43638B6B8363CB6BC36340304031D9
:404C4000403ADBD230320BD30B6803604B6843608B688360CB68C36010301031103AF3D20C3205D351F8043B40F8043B043AF9D2043208D0D2071CBF11F8013B00F8013B8C
:404C800001D30B8803806046704700BF082A13D38B07B1D010F00303AED0C3F10403D21ADB071CBF11F8013B00F8013BA4D331F8023B20F8023B9FE7043AD9D3013A11F87C
:404CC000013B00F8013BF9D20B7803704B7843708B7883706046704770B4840746D0541E002A41D0CDB2034602E0621EE4B3144603F8015B9A07F8D1032C2ED9CDB245EA88
:404D000005250F2C45EA054519D9264603F11002103E0F2E42F8105C42F80C5C42F8085C42F8045C02F11002F2D8A4F1100222F00F0204F00F041032032C13440DD91E4674
:404D40002246043A032A46F8045BFAD8221F22F003020432134404F003042CB1C9B21C4403F8011BA342FBD170BC704714460346C2E700BF024B13B1024800F005B87047E4
:404D800000000000954D0000002301461A46184600F014B838B5074D074C2C1BA41005D0013C55F8043D9847002CF9D1BDE8384000F084BACC520000C85200002DE9F04759
:404DC000254C064625688846D5F8484192469946C4B360681F2817DC411C76B104EB8003C3F888A0D4F88851012282401543022EC4F88851C3F808911ED0831C61600020D3
:404E000044F82380BDE8F087144B03B34FF4C870AFF300800446D0B1D5F84831002784E888003846C5F848410121C4F88871C4F88C71002EE1D0D1E7D4F88C311A43C4F80C
:404E40008C21DAE705F5A674C5F84841C1E74FF0FF30BDE8F08700BFA052000000000000000000001D510040285B00401D510040285B004040042002405100403000F051FD
:404E80000040100000000140001000140140000800400140000A004C0140000200500140200000006937AC3168212233B40F14336821A2333863ED3EDA0F493F5E987B3F7F
:404EC000DA0FC93F7371727400000000000FC93F000F494000CB9640000FC9400053FB4000CB164100ED2F41000F49410031624100537B41003A8A4100CB9641005CA3411F
:404F000000EDAF41007EBC41000FC94100A0D5410031E24100C2EE410053FB4100F20342003A0A420083104200CB164200141D42005C234200A5294200ED2F420036364271
:404F4000007E3C4200C74242000F4942A2000000F9000000830000006E0000004E000000440000001500000029000000FC0000002700000057000000D1000000F5000000B4
:404F800034000000DD000000C0000000DB0000006200000095000000990000003C000000430000009000000041000000FE0000005100000063000000AB000000DE0000002A
:404FC000BB000000C500000061000000B7000000240000006E0000003A000000420000004D000000D2000000E000000006000000490000002E000000EA000000090000009C
:40500000D1000000920000001C000000FE0000001D000000EB0000001C000000B100000029000000A70000003E000000E80000008200000035000000F50000002E0000004E
:40504000BB0000004400000084000000E90000009C0000007000000026000000B40000005F0000007E000000410000003900000091000000D6000000390000008300000064
:405080005300000039000000F40000009C000000840000005F0000008B000000BD000000F9000000280000003B0000001F000000F800000097000000FF000000DE000000C2
:4050C00005000000980000000F000000EF0000002F000000110000008B0000005A0000000A0000006D0000001F0000006D000000360000007E000000CF0000002700000043
:40510000CB00000009000000B70000004F000000460000003F000000660000009E0000005F000000EA0000002D0000007500000027000000BA000000C7000000EB0000008E
:40514000E5000000F10000007B0000003D0000000700000039000000F70000008A0000005200000092000000EA0000006B000000FB0000005F000000B10000001F0000007D
:405180008D0000005D0000000800000056000000030000003000000046000000FC0000007B0000006B000000AB000000F0000000CF000000BC000000200000009A0000006C
:4051C000F4000000360000001D000000A9000000E300000091000000610000005E000000E60000001B000000080000006500000099000000850000005F000000140000008D
:40520000A000000068000000400000008D000000FF000000D8000000800000004D00000073000000270000003100000006000000060000001500000056000000CA000000E9
:4052400073000000A8000000C900000060000000E20000007B000000C00000008C0000006B0000000400000007000000090000000000C93F0000F0390000DA370000A233AB
:405280000000842E0000502B0000C2270000D0220000C41F0000C61B0000441743000000F880FF1FF8B500BFF8BC08BC9E467047754D00004D000000ED150000F8B500BFF2
:4052C000F8BC08BC9E46704729000000E0520000C880FF1F6004000070070000000000000000000010000000F90F49408716C93F00C0DA45807F00000300000080CC060284
:40530000D08400002200000000006842FFFFFF0100000000E483FF1F4C84FF1FB484FF1F000000000000000000000000000000000000000000000000000000000000000086
:40534000000000009C52000000000000000000000000000000000000000000000000000000000000000000000000000000000000000000000000000000000000000000003F
:4053800000000000000000000000000000000000000000000000000000000000000000000000000000000000000000000000000000000000000000000100000000000000EC
:4053C0000E33CDAB34126DE6ECDE05000B00000000000000000000000000000000000000000000000000000000000000000000000000000000000000000000000000000081
:40540000000000000000000000000000000000000000000000000000000000000000000000000000000000000000000000000000000000000000000000000000000000006C
:40544000000000000000000000000000000000000000000000000000000000000000000000000000000000000000000000000000000000000000000000000000000000002C
:4054800000000000000000000000000000000000000000000000000000000000000000000000000000000000000000000000000000000000000000000000000000000000EC
:4054C00000000000000000000000000000000000000000000000000000000000000000000000000000000000000000000000000000000000000000000000000000000000AC
:40550000000000000000000000000000000000000000000000000000000000000000000000000000000000000000000000000000000000000000000000000000000000006B
:40554000000000000000000000000000000000000000000000000000000000000000000000000000000000000000000000000000000000000000000000000000000000002B
:4055800000000000000000000000000000000000000000000000000000000000000000000000000000000000000000000000000000000000000000000000000000000000EB
:4055C00000000000000000000000000000000000000000000000000000000000000000000000000000000000000000000000000000000000000000000000000000000000AB
:40560000000000000000000000000000000000000000000000000000000000000000000000000000000000000000000000000000000000000000000000000000000000006A
:40564000000000000000000000000000000000000000000000000000000000000000000000000000000000000000000000000000000000000000000000000000000000002A
:4056800000000000000000000000000000000000000000000000000000000000000000000000000000000000000000000000000000000000000000000000000000000000EA
:4056C00000000000000000000000000000000000000000000000000000000000000000000000000000000000000000000000000000000000000000000000000000000000AA
:405700000000000000000000000000000000000000000000000000000000000000000000000000000000000000000000000000000000000000000000F880FF1F00000000D3
:405740000000000000000000000000000000000000000000000000000000000000000000000000000000000000000000000000000000000000000000000000000000000029
:4057800000000000000000000000000000000000000000000000000000000000000000000000000000000000000000000000000000000000000000000000000000000000E9
:4057C00000000000000000000000000000000000000000000000000000000000000000000000000000000000000000000000000000000000000000000000000000000000A9
:405800000000000000000000000000000000000000000000000000000000000000000000000000000000000000000000000000000000000000000000000000000000000068
:020000040003F7
:0200000480007A
:40000000014500400352004005650040010301400307014001090140010D0140501401403E1501405B160140311701404C180140381901405D1A01404C1B0140064001403F
:400040000941014004420140064301400145014004460140054701400248014009490140074C0140084D014005500140035101401202010114046180840F850D860D897210
:400080008A38E2088F01E240EE05EE05E208060108010E0117011E01200228012F013202360137013E444030410449FF4AFF4BFF4DA04F04501854015604580459045A041E
:4000C0005B045C105D215F01604062C06440654066C068C06AC06CC06EC08202830196029E04AD01AE01B004B201B402B701BE10C030C104C5D0C602C710C826C9FFCAFFD0
:40010000CBFFCDAFCE0FCF04D018D280D405D804D904DA04DB04DC11DD11DF01E040E2C0E440E540E6C0E8C0EAC0ECC0EEC0009001480310068009800D080F0211021310D1
:40014000174019841D081E081F02200226402B012F0231083F0241084280450846804F015680570159845B125E885F016040774081018302844188109010931094409540ED
:4001800099089C10A180A880A901B180B310B410C017C2A1C48ACA18CC02CE80D0C3D6DFD801E202E601EC02EE0102011304160617021B0124082503260228082A042B0484
:4001C0003006320134083504370338203F104030410549FF4AFF4BFF4DA04F04501852805405580459045A045B045F01604062C06440654066C068C06AC06CC06EC0813078
:40020000834089318A038BC68E018F539531974E9B089C069DAC9E019F43A206A38CA602AA05B207B3F0B70FBA08BB88C030C105C5D0C721C83AC9FFCAFFCBFFCDAFCE0FFA
:40024000CF04D018D804D904DA04DC22DF01E040E2C0E440E540E6C0E8C0EAC0ECC0EEC000100140074009800D081010110213101614181019041D081F292180231026404F
:40028000270828802F2830103184362A39403A023B104108450849024A024E02523E5D025E805F08774089088A0294409702A840C013C221C46ECA61CCEECE0DD042D2183D
:4002C000D6D004140502081009040C100E0C130216031D02201C2202280C29012A112C092E103106321F350139023F104056410246B047CE483849FF4AFF4BFF4EF04F44CD
:40030000500C580459045A045C225D025F0166C06A406B028110880289188D5C8E018F22930499089D7FA303A55CA601A721A802A967AB18AC02AD04B002B11FB340B4017B
:40034000B520B920BB82BE10BF04D602D712D804D904DB04DC22DD20DF0100200202058006140E1010021110122016081742180419011A401E10204021802224251027406F
:40038000280129252E10319032013580370238403A023B103E083F2046084D804F20561057095A0868126918708071107202731481108B01C0E3C220C4D7CA2FCC9DCE6D0F
:4003C000D020D230D602E001E28000FF0122038D04F3053B060C080F093B0AF00C8C0E731011143319081B701C221D111F8A20082404280C2EF330303104324C33C0340F70
:400400003538368C37033A283F044024410142054406450C47E0482149FF4AFF4BFF4C624DA04EF04F41500C5418580459045A045B045C225D225F016640670269106A3095
:400440006B106D106E106F1285038B01910295039B04AF04B103B704B902BF41C001C704C9FFCA07CBFFCC40CD20CEF0CF05D008D608D904DA04DB04DD92DF01E040E1A808
:40048000E240E320005003600AA00B02108011401314181019A51A041B202259268027802D8032503610370A39183B023D403E483F20418042444340478049804A185202E8
:4004C00054045614571059015F4060046280640167028308861087408804904491189240931496029A089B0A9C019D249E04A080A180A308A602A710AB40B180B30AB6089B
:40050000C00FC20DC40FCA10CCECCE67D01DD20CD611D81CE220E602E830EC823308360839413C40CCC0CE705A208501860894409541A608A708D480E210944095409620FA
:40054000A7088E1095409620A840AB08EEA087401A801B049780C60840809780AA40AB04D002A940EE201A02630287019602AE01C640D640E610EC401F403B2082109780EB
:400580009C80C601CE081302721087029210AC80AF10C408DC01100711011A071C041D0100F50103100A0000006B6B0001001400800040808000800000000000000B0B0050
:4005C0000000E00004000004000000000000000000E0E0004000000001001801000100000000000000000000000000000000000000000000000000000000000000000000F8
:4006000000000000000000000000000000000000000000000000000000000000000000000000000000000000000000000000000000000000000000000000000000000000BA
:40064000000000000000000000000000000000000000000000000000000000000000000000000000000000000000000000000000000000000000000000000000000000007A
:40068000000000000000000000000000000000000000000000000000000000000000000000000000000000000000000000000000000000000000000000000000000000003A
:4006C00000000000000000000000000000000000000000000000000000000000000000000000000000000000000000000000000000000000000000000000000000000000FA
:0200000490006A
:0400000000004005B7
:0200000490105A
:04000000BC90ACAF55
:0200000490303A
:02000000C299A3
:0200000490402A
:4000000000000000000000000000000000000000000000000000000000000000000000000000000000000000000000000000000000000000000000000000000000000000C0
:400040000000000000000000000000000000000000000000000000000000000000000000000000000000000000000000000000000000000000000000000000000000000080
:400080000000000000000000000000000000000000000000000000000000000000000000000000000000000000000000000000000000000000000000000000000000000040
:4000C0000000000000000000000000000000000000000000000000000000000000000000000000000000000000000000000000000000000000000000000000000000000000
:0200000490501A
:0C00000000012E16106900012E38D302FA
:00000001FF